{
  "abi": [
    {
      "type": "function",
      "name": "addJob",
      "inputs": [
        {
          "name": "originalId",
          "type": "string",
          "internalType": "string"
        },
        {
          "name": "operatingUnit",
          "type": "string",
          "internalType": "string"
        },
        {
          "name": "officePostalCode",
          "type": "string",
          "internalType": "string"
        },
        {
          "name": "totalHours",
          "type": "uint256",
          "internalType": "uint256"
        },
        {
          "name": "clientId",
          "type": "string",
          "internalType": "string"
        },
        {
          "name": "isUnassigned",
          "type": "bool",
          "internalType": "bool"
        }
      ],
      "outputs": [],
      "stateMutability": "nonpayable"
    },
    {
      "type": "function",
      "name": "jobs",
      "inputs": [
        {
          "name": "",
          "type": "uint256",
          "internalType": "uint256"
        }
      ],
      "outputs": [
        {
          "name": "id",
          "type": "uint256",
          "internalType": "uint256"
        },
        {
          "name": "originalId",
          "type": "string",
          "internalType": "string"
        },
        {
          "name": "operatingUnit",
          "type": "string",
          "internalType": "string"
        },
        {
          "name": "officePostalCode",
          "type": "string",
          "internalType": "string"
        },
        {
          "name": "totalHours",
          "type": "uint256",
          "internalType": "uint256"
        },
        {
          "name": "clientId",
          "type": "string",
          "internalType": "string"
        },
        {
          "name": "isUnassigned",
          "type": "bool",
          "internalType": "bool"
        }
      ],
      "stateMutability": "view"
    },
    {
      "type": "function",
      "name": "number",
      "inputs": [],
      "outputs": [
        {
          "name": "",
          "type": "uint256",
          "internalType": "uint256"
        }
      ],
      "stateMutability": "view"
    },
    {
      "type": "event",
      "name": "JobAdded",
      "inputs": [
        {
          "name": "id",
          "type": "uint256",
          "indexed": false,
          "internalType": "uint256"
        },
        {
          "name": "originalId",
          "type": "string",
          "indexed": false,
          "internalType": "string"
        },
        {
          "name": "operatingUnit",
          "type": "string",
          "indexed": false,
          "internalType": "string"
        },
        {
          "name": "officePostalCode",
          "type": "string",
          "indexed": false,
          "internalType": "string"
        },
        {
          "name": "totalHours",
          "type": "uint256",
          "indexed": false,
          "internalType": "uint256"
        },
        {
          "name": "clientId",
          "type": "string",
          "indexed": false,
          "internalType": "string"
        },
        {
          "name": "isUnassigned",
          "type": "bool",
          "indexed": false,
          "internalType": "bool"
        }
      ],
      "anonymous": false
    }
  ],
  "bytecode": {
    "object": "0x608060405234801561001057600080fd5b50610873806100206000396000f3fe608060405234801561001057600080fd5b50600436106100415760003560e01c8063180aedf3146100465780638381f58a14610075578063d36dfeb21461008c575b600080fd5b610059610054366004610480565b6100a1565b60405161006c97969594939291906104df565b60405180910390f35b61007e60005481565b60405190815260200161006c565b61009f61009a366004610607565b610312565b005b600181815481106100b157600080fd5b600091825260209091206007909102018054600182018054919350906100d6906106cd565b80601f0160208091040260200160405190810160405280929190818152602001828054610102906106cd565b801561014f5780601f106101245761010080835404028352916020019161014f565b820191906000526020600020905b81548152906001019060200180831161013257829003601f168201915b505050505090806002018054610164906106cd565b80601f0160208091040260200160405190810160405280929190818152602001828054610190906106cd565b80156101dd5780601f106101b2576101008083540402835291602001916101dd565b820191906000526020600020905b8154815290600101906020018083116101c057829003601f168201915b5050505050908060030180546101f2906106cd565b80601f016020809104026020016040519081016040528092919081815260200182805461021e906106cd565b801561026b5780601f106102405761010080835404028352916020019161026b565b820191906000526020600020905b81548152906001019060200180831161024e57829003601f168201915b505050505090806004015490806005018054610286906106cd565b80601f01602080910402602001604051908101604052809291908181526020018280546102b2906106cd565b80156102ff5780601f106102d4576101008083540402835291602001916102ff565b820191906000526020600020905b8154815290600101906020018083116102e257829003601f168201915b5050506006909301549192505060ff1687565b60008054908061032183610707565b90915550506040805160e08101825260008054825260208201898152928201889052606082018790526080820186905260a0820185905283151560c08301526001805480820182559152815160079091027fb10e2d527612073b26eecdfd717e6a320cf44b4afac2b0732d9fcbe2b7fa0cf681019182559251919283927fb10e2d527612073b26eecdfd717e6a320cf44b4afac2b0732d9fcbe2b7fa0cf7909101906103cd908261077d565b50604082015160028201906103e2908261077d565b50606082015160038201906103f7908261077d565b506080820151600482015560a08201516005820190610416908261077d565b5060c091909101516006909101805460ff19169115159190911790556000546040517fb7aa02eb2ab45a655ade9bf8932ee5c8d9ecf29dea9d24ebaba8d77e7f4038119161046f918a908a908a908a908a908a906104df565b60405180910390a150505050505050565b60006020828403121561049257600080fd5b5035919050565b6000815180845260005b818110156104bf576020818501810151868301820152016104a3565b506000602082860101526020601f19601f83011685010191505092915050565b87815260e0602082015260006104f860e0830189610499565b828103604084015261050a8189610499565b9050828103606084015261051e8188610499565b905085608084015282810360a08401526105388186610499565b91505082151560c083015298975050505050505050565b634e487b7160e01b600052604160045260246000fd5b600082601f83011261057657600080fd5b813567ffffffffffffffff808211156105915761059161054f565b604051601f8301601f19908116603f011681019082821181831017156105b9576105b961054f565b816040528381528660208588010111156105d257600080fd5b836020870160208301376000602085830101528094505050505092915050565b8035801515811461060257600080fd5b919050565b60008060008060008060c0878903121561062057600080fd5b863567ffffffffffffffff8082111561063857600080fd5b6106448a838b01610565565b9750602089013591508082111561065a57600080fd5b6106668a838b01610565565b9650604089013591508082111561067c57600080fd5b6106888a838b01610565565b95506060890135945060808901359150808211156106a557600080fd5b506106b289828a01610565565b9250506106c160a088016105f2565b90509295509295509295565b600181811c908216806106e157607f821691505b60208210810361070157634e487b7160e01b600052602260045260246000fd5b50919050565b60006001820161072757634e487b7160e01b600052601160045260246000fd5b5060010190565b601f82111561077857600081815260208120601f850160051c810160208610156107555750805b601f850160051c820191505b8181101561077457828155600101610761565b5050505b505050565b815167ffffffffffffffff8111156107975761079761054f565b6107ab816107a584546106cd565b8461072e565b602080601f8311600181146107e057600084156107c85750858301515b600019600386901b1c1916600185901b178555610774565b600085815260208120601f198616915b8281101561080f578886015182559484019460019091019084016107f0565b508582101561082d5787850151600019600388901b60f8161c191681555b5050505050600190811b0190555056fea2646970667358221220ce05029f5f1d5c0088c52d8005117d0d15c11b9d7d95bc6b9693e940d63d967b64736f6c63430008140033",
    "linkReferences": {}
  },
  "methodIdentifiers": {
    "addJob(string,string,string,uint256,string,bool)": "d36dfeb2",
    "jobs(uint256)": "180aedf3",
    "number()": "8381f58a"
  },
  "id": 25
}